{
  "contractName": "Calculator",
  "abi": [
    {
      "inputs": [
        {
          "internalType": "uint256",
          "name": "x",
          "type": "uint256"
        },
        {
          "internalType": "bytes32",
          "name": "oper",
          "type": "bytes32"
        },
        {
          "internalType": "uint256",
          "name": "y",
          "type": "uint256"
        }
      ],
      "name": "GetCalk",
      "outputs": [
        {
          "internalType": "uint256",
          "name": "",
          "type": "uint256"
        }
      ],
      "stateMutability": "pure",
      "type": "function",
      "constant": true
    }
  ],
  "bytecode": "0x608060405234801561001057600080fd5b506103e1806100206000396000f3fe608060405234801561001057600080fd5b506004361061002b5760003560e01c8063a222d13a14610030575b600080fd5b61004a600480360381019061004591906101bb565b610060565b604051610057919061021d565b60405180910390f35b6000807f2b0000000000000000000000000000000000000000000000000000000000000084141561009a5782856100979190610267565b90505b7f2d000000000000000000000000000000000000000000000000000000000000008414156100d15782856100ce91906102bd565b90505b7f2a0000000000000000000000000000000000000000000000000000000000000084141561010857828561010591906102f1565b90505b7f2f0000000000000000000000000000000000000000000000000000000000000084141561013f57828561013c919061037a565b90505b809150509392505050565b600080fd5b6000819050919050565b6101628161014f565b811461016d57600080fd5b50565b60008135905061017f81610159565b92915050565b6000819050919050565b61019881610185565b81146101a357600080fd5b50565b6000813590506101b58161018f565b92915050565b6000806000606084860312156101d4576101d361014a565b5b60006101e286828701610170565b93505060206101f3868287016101a6565b925050604061020486828701610170565b9150509250925092565b6102178161014f565b82525050565b6000602082019050610232600083018461020e565b92915050565b7f4e487b7100000000000000000000000000000000000000000000000000000000600052601160045260246000fd5b60006102728261014f565b915061027d8361014f565b9250827fffffffffffffffffffffffffffffffffffffffffffffffffffffffffffffffff038211156102b2576102b1610238565b5b828201905092915050565b60006102c88261014f565b91506102d38361014f565b9250828210156102e6576102e5610238565b5b828203905092915050565b60006102fc8261014f565b91506103078361014f565b9250817fffffffffffffffffffffffffffffffffffffffffffffffffffffffffffffffff04831182151516156103405761033f610238565b5b828202905092915050565b7f4e487b7100000000000000000000000000000000000000000000000000000000600052601260045260246000fd5b60006103858261014f565b91506103908361014f565b9250826103a05761039f61034b565b5b82820490509291505056fea26469706673582212207bfa24684ea1973d437854db02874522135617160e24d670af67d888cb01b43d64736f6c634300080c0033",
  "immutableReferences": {},
  "source": "// SPDX-License-Identifier: MIT\npragma solidity >=0.4.22 <0.9.0;\n\ncontract Calculator {\n // constructor() public {\n function GetCalk (uint256 x, bytes32 oper, uint256 y) public pure returns (uint256) {\n uint256 res;\n if (oper == \"+\") res = x+y;\n if (oper == \"-\") res = x-y;\n if (oper == \"*\") res = x*y;\n if (oper == \"/\") res = x/y;\n return res;\n }\n\n}\n",
  "sourcePath": "D:\\!\\sol\\SimpleContracts\\contracts\\Calculator.sol",
  "compiler": {
    "name": "solc",
    "version": "0.8.12+commit.f00d7308.Emscripten.clang"
  },
  "schemaVersion": "3.4.6",
  "updatedAt": "2022-03-23T12:52:44.119Z",
  "networkType": "ethereum",
  "devdoc": {
    "kind": "dev",
    "methods": {},
    "version": 1
  },
  "userdoc": {
    "kind": "user",
    "methods": {},
    "version": 1
  }
}