{
  "contractName": "fib",
  "abi": [
    {
      "inputs": [
        {
          "internalType": "uint256",
          "name": "n",
          "type": "uint256"
        }
      ],
      "name": "GetFib",
      "outputs": [
        {
          "internalType": "uint256",
          "name": "",
          "type": "uint256"
        }
      ],
      "stateMutability": "pure",
      "type": "function",
      "constant": true
    }
  ],
  "bytecode": "0x608060405234801561001057600080fd5b50610246806100206000396000f3fe608060405234801561001057600080fd5b506004361061002b5760003560e01c80637af4199e14610030575b600080fd5b61004a600480360381019061004591906100eb565b610060565b6040516100579190610127565b60405180910390f35b600080600190506000600190506000600390505b8481116100a557600082846100899190610171565b905082935080925050808061009d906101c7565b915050610074565b508092505050919050565b600080fd5b6000819050919050565b6100c8816100b5565b81146100d357600080fd5b50565b6000813590506100e5816100bf565b92915050565b600060208284031215610101576101006100b0565b5b600061010f848285016100d6565b91505092915050565b610121816100b5565b82525050565b600060208201905061013c6000830184610118565b92915050565b7f4e487b7100000000000000000000000000000000000000000000000000000000600052601160045260246000fd5b600061017c826100b5565b9150610187836100b5565b9250827fffffffffffffffffffffffffffffffffffffffffffffffffffffffffffffffff038211156101bc576101bb610142565b5b828201905092915050565b60006101d2826100b5565b91507fffffffffffffffffffffffffffffffffffffffffffffffffffffffffffffffff82141561020557610204610142565b5b60018201905091905056fea2646970667358221220d4f248a7a89222777649a0e7b89227f7ea9bb30b8dbbd0c8181a5d383f33837464736f6c634300080c0033",
  "immutableReferences": {},
  "source": "// SPDX-License-Identifier: MIT\npragma solidity >=0.4.22 <0.9.0;\n\ncontract fib {\n function GetFib(uint n) public pure returns (uint256) {\n uint256 a = 1;\n uint256 b = 1;\n for (uint256 i =3; i <=n; i++) {\n   uint256 c = a+b;\n   a = b;\n   b = c;\n   }\n   return b;\n }\n\n  \n}\n",
  "sourcePath": "D:\\!Щеглова\\sol\\SimpleContracts\\contracts\\fib.sol",
  "compiler": {
    "name": "solc",
    "version": "0.8.12+commit.f00d7308.Emscripten.clang"
  },
  "schemaVersion": "3.4.6",
  "updatedAt": "2022-03-23T12:52:44.819Z",
  "networkType": "ethereum",
  "devdoc": {
    "kind": "dev",
    "methods": {},
    "version": 1
  },
  "userdoc": {
    "kind": "user",
    "methods": {},
    "version": 1
  }
}